{
  "_format": "hh-sol-artifact-1",
  "contractName": "DiplomaRegistry",
  "sourceName": "contracts/DiplomaRegistry.sol",
  "abi": [
    {
      "inputs": [],
      "stateMutability": "nonpayable",
      "type": "constructor"
    },
    {
      "anonymous": false,
      "inputs": [
        {
          "indexed": false,
          "internalType": "string",
          "name": "cne",
          "type": "string"
        },
        {
          "indexed": false,
          "internalType": "string",
          "name": "name",
          "type": "string"
        }
      ],
      "name": "DiplomaAdded",
      "type": "event"
    },
    {
      "inputs": [
        {
          "internalType": "string",
          "name": "cne",
          "type": "string"
        },
        {
          "internalType": "string",
          "name": "name",
          "type": "string"
        },
        {
          "internalType": "string",
          "name": "degree",
          "type": "string"
        },
        {
          "internalType": "string",
          "name": "university",
          "type": "string"
        },
        {
          "internalType": "uint256",
          "name": "year",
          "type": "uint256"
        }
      ],
      "name": "addDiploma",
      "outputs": [],
      "stateMutability": "nonpayable",
      "type": "function"
    },
    {
      "inputs": [],
      "name": "admin",
      "outputs": [
        {
          "internalType": "address",
          "name": "",
          "type": "address"
        }
      ],
      "stateMutability": "view",
      "type": "function"
    },
    {
      "inputs": [
        {
          "internalType": "string",
          "name": "cne",
          "type": "string"
        }
      ],
      "name": "getDiploma",
      "outputs": [
        {
          "internalType": "string",
          "name": "",
          "type": "string"
        },
        {
          "internalType": "string",
          "name": "",
          "type": "string"
        },
        {
          "internalType": "string",
          "name": "",
          "type": "string"
        },
        {
          "internalType": "uint256",
          "name": "",
          "type": "uint256"
        },
        {
          "internalType": "bool",
          "name": "",
          "type": "bool"
        }
      ],
      "stateMutability": "view",
      "type": "function"
    }
  ],
  "bytecode": "0x608060405234801561001057600080fd5b50336000806101000a81548173ffffffffffffffffffffffffffffffffffffffff021916908373ffffffffffffffffffffffffffffffffffffffff160217905550610db0806100606000396000f3fe608060405234801561001057600080fd5b50600436106100415760003560e01c806357a9e552146100465780639c88cd1414610062578063f851a44014610096575b600080fd5b610060600480360381019061005b9190610699565b6100b4565b005b61007c60048036038101906100779190610784565b6102a8565b60405161008d959493929190610876565b60405180910390f35b61009e6104e5565b6040516100ab919061091f565b60405180910390f35b60008054906101000a900473ffffffffffffffffffffffffffffffffffffffff1673ffffffffffffffffffffffffffffffffffffffff163373ffffffffffffffffffffffffffffffffffffffff1614610142576040517f08c379a000000000000000000000000000000000000000000000000000000000815260040161013990610986565b60405180910390fd5b60018560405161015291906109e2565b908152602001604051809103902060040160009054906101000a900460ff16156101b1576040517f08c379a00000000000000000000000000000000000000000000000000000000081526004016101a890610a45565b60405180910390fd5b6040518060a00160405280858152602001848152602001838152602001828152602001600115158152506001866040516101eb91906109e2565b9081526020016040518091039020600082015181600001908161020e9190610c71565b5060208201518160010190816102249190610c71565b50604082015181600201908161023a9190610c71565b506060820151816003015560808201518160040160006101000a81548160ff0219169083151502179055509050507f39d4825f52b1f3eac09617840f5766e4446bb41385142f23304838cd87586b158585604051610299929190610d43565b60405180910390a15050505050565b606080606060008060006001876040516102c291906109e2565b90815260200160405180910390206040518060a00160405290816000820180546102eb90610a94565b80601f016020809104026020016040519081016040528092919081815260200182805461031790610a94565b80156103645780601f1061033957610100808354040283529160200191610364565b820191906000526020600020905b81548152906001019060200180831161034757829003601f168201915b5050505050815260200160018201805461037d90610a94565b80601f01602080910402602001604051908101604052809291908181526020018280546103a990610a94565b80156103f65780601f106103cb576101008083540402835291602001916103f6565b820191906000526020600020905b8154815290600101906020018083116103d957829003601f168201915b5050505050815260200160028201805461040f90610a94565b80601f016020809104026020016040519081016040528092919081815260200182805461043b90610a94565b80156104885780601f1061045d57610100808354040283529160200191610488565b820191906000526020600020905b81548152906001019060200180831161046b57829003601f168201915b50505050508152602001600382015481526020016004820160009054906101000a900460ff161515151581525050905080600001518160200151826040015183606001518460800151955095509550955095505091939590929450565b60008054906101000a900473ffffffffffffffffffffffffffffffffffffffff1681565b6000604051905090565b600080fd5b600080fd5b600080fd5b600080fd5b6000601f19601f8301169050919050565b7f4e487b7100000000000000000000000000000000000000000000000000000000600052604160045260246000fd5b61057082610527565b810181811067ffffffffffffffff8211171561058f5761058e610538565b5b80604052505050565b60006105a2610509565b90506105ae8282610567565b919050565b600067ffffffffffffffff8211156105ce576105cd610538565b5b6105d782610527565b9050602081019050919050565b82818337600083830152505050565b6000610606610601846105b3565b610598565b90508281526020810184848401111561062257610621610522565b5b61062d8482856105e4565b509392505050565b600082601f83011261064a5761064961051d565b5b813561065a8482602086016105f3565b91505092915050565b6000819050919050565b61067681610663565b811461068157600080fd5b50565b6000813590506106938161066d565b92915050565b600080600080600060a086880312156106b5576106b4610513565b5b600086013567ffffffffffffffff8111156106d3576106d2610518565b5b6106df88828901610635565b955050602086013567ffffffffffffffff811115610700576106ff610518565b5b61070c88828901610635565b945050604086013567ffffffffffffffff81111561072d5761072c610518565b5b61073988828901610635565b935050606086013567ffffffffffffffff81111561075a57610759610518565b5b61076688828901610635565b925050608061077788828901610684565b9150509295509295909350565b60006020828403121561079a57610799610513565b5b600082013567ffffffffffffffff8111156107b8576107b7610518565b5b6107c484828501610635565b91505092915050565b600081519050919050565b600082825260208201905092915050565b60005b838110156108075780820151818401526020810190506107ec565b60008484015250505050565b600061081e826107cd565b61082881856107d8565b93506108388185602086016107e9565b61084181610527565b840191505092915050565b61085581610663565b82525050565b60008115159050919050565b6108708161085b565b82525050565b600060a08201905081810360008301526108908188610813565b905081810360208301526108a48187610813565b905081810360408301526108b88186610813565b90506108c7606083018561084c565b6108d46080830184610867565b9695505050505050565b600073ffffffffffffffffffffffffffffffffffffffff82169050919050565b6000610909826108de565b9050919050565b610919816108fe565b82525050565b60006020820190506109346000830184610910565b92915050565b7f4f6e6c792061646d696e2063616e20616464206469706c6f6d61000000000000600082015250565b6000610970601a836107d8565b915061097b8261093a565b602082019050919050565b6000602082019050818103600083015261099f81610963565b9050919050565b600081905092915050565b60006109bc826107cd565b6109c681856109a6565b93506109d68185602086016107e9565b80840191505092915050565b60006109ee82846109b1565b915081905092915050565b7f4469706c6f6d6120616c72656164792065786973747300000000000000000000600082015250565b6000610a2f6016836107d8565b9150610a3a826109f9565b602082019050919050565b60006020820190508181036000830152610a5e81610a22565b9050919050565b7f4e487b7100000000000000000000000000000000000000000000000000000000600052602260045260246000fd5b60006002820490506001821680610aac57607f821691505b602082108103610abf57610abe610a65565b5b50919050565b60008190508160005260206000209050919050565b60006020601f8301049050919050565b600082821b905092915050565b600060088302610b277fffffffffffffffffffffffffffffffffffffffffffffffffffffffffffffffff82610aea565b610b318683610aea565b95508019841693508086168417925050509392505050565b6000819050919050565b6000610b6e610b69610b6484610663565b610b49565b610663565b9050919050565b6000819050919050565b610b8883610b53565b610b9c610b9482610b75565b848454610af7565b825550505050565b600090565b610bb1610ba4565b610bbc818484610b7f565b505050565b5b81811015610be057610bd5600082610ba9565b600181019050610bc2565b5050565b601f821115610c2557610bf681610ac5565b610bff84610ada565b81016020851015610c0e578190505b610c22610c1a85610ada565b830182610bc1565b50505b505050565b600082821c905092915050565b6000610c4860001984600802610c2a565b1980831691505092915050565b6000610c618383610c37565b9150826002028217905092915050565b610c7a826107cd565b67ffffffffffffffff811115610c9357610c92610538565b5b610c9d8254610a94565b610ca8828285610be4565b600060209050601f831160018114610cdb5760008415610cc9578287015190505b610cd38582610c55565b865550610d3b565b601f198416610ce986610ac5565b60005b82811015610d1157848901518255600182019150602085019450602081019050610cec565b86831015610d2e5784890151610d2a601f891682610c37565b8355505b6001600288020188555050505b505050505050565b60006040820190508181036000830152610d5d8185610813565b90508181036020830152610d718184610813565b9050939250505056fea2646970667358221220f11025c4b45222608c19b21add04426622fcf7d78aa9c1adf70c46905de2259364736f6c63430008140033",
  "linkReferences": {},
  "deployedLinkReferences": {}
}